{
  "contractName": "RainbowOnes",
  "abi": [
    {
      "inputs": [],
      "payable": false,
      "stateMutability": "nonpayable",
      "type": "constructor"
    },
    {
      "anonymous": false,
      "inputs": [
        {
          "indexed": true,
          "internalType": "address",
          "name": "token",
          "type": "address"
        },
        {
          "indexed": true,
          "internalType": "address",
          "name": "sender",
          "type": "address"
        },
        {
          "indexed": false,
          "internalType": "uint256",
          "name": "amount",
          "type": "uint256"
        },
        {
          "indexed": false,
          "internalType": "address",
          "name": "recipient",
          "type": "address"
        }
      ],
      "name": "Burn",
      "type": "event"
    },
    {
      "anonymous": false,
      "inputs": [
        {
          "indexed": true,
          "internalType": "address",
          "name": "token",
          "type": "address"
        },
        {
          "indexed": true,
          "internalType": "address",
          "name": "sender",
          "type": "address"
        },
        {
          "indexed": false,
          "internalType": "uint256",
          "name": "amount",
          "type": "uint256"
        },
        {
          "indexed": false,
          "internalType": "address",
          "name": "recipient",
          "type": "address"
        }
      ],
      "name": "Locked",
      "type": "event"
    },
    {
      "anonymous": false,
      "inputs": [
        {
          "indexed": true,
          "internalType": "address",
          "name": "previousOwner",
          "type": "address"
        },
        {
          "indexed": true,
          "internalType": "address",
          "name": "newOwner",
          "type": "address"
        }
      ],
      "name": "OwnershipTransferred",
      "type": "event"
    },
    {
      "anonymous": false,
      "inputs": [
        {
          "indexed": true,
          "internalType": "address",
          "name": "tokenReq",
          "type": "address"
        },
        {
          "indexed": true,
          "internalType": "address",
          "name": "tokenAck",
          "type": "address"
        }
      ],
      "name": "TokenMapAck",
      "type": "event"
    },
    {
      "anonymous": false,
      "inputs": [
        {
          "indexed": true,
          "internalType": "address",
          "name": "tokenReq",
          "type": "address"
        },
        {
          "indexed": true,
          "internalType": "uint8",
          "name": "decimals",
          "type": "uint8"
        },
        {
          "indexed": false,
          "internalType": "string",
          "name": "name",
          "type": "string"
        },
        {
          "indexed": false,
          "internalType": "string",
          "name": "symbol",
          "type": "string"
        }
      ],
      "name": "TokenMapReq",
      "type": "event"
    },
    {
      "constant": true,
      "inputs": [
        {
          "internalType": "bytes32",
          "name": "rootHash",
          "type": "bytes32"
        },
        {
          "internalType": "bytes",
          "name": "mptkey",
          "type": "bytes"
        },
        {
          "internalType": "bytes",
          "name": "proof",
          "type": "bytes"
        }
      ],
      "name": "MPTProof",
      "outputs": [
        {
          "internalType": "bytes",
          "name": "",
          "type": "bytes"
        }
      ],
      "payable": false,
      "stateMutability": "pure",
      "type": "function"
    },
    {
      "constant": true,
      "inputs": [
        {
          "internalType": "address",
          "name": "",
          "type": "address"
        }
      ],
      "name": "OtherSideLocked",
      "outputs": [
        {
          "internalType": "address",
          "name": "",
          "type": "address"
        }
      ],
      "payable": false,
      "stateMutability": "view",
      "type": "function"
    },
    {
      "constant": true,
      "inputs": [
        {
          "internalType": "address",
          "name": "",
          "type": "address"
        }
      ],
      "name": "OtherSideMint",
      "outputs": [
        {
          "internalType": "address",
          "name": "",
          "type": "address"
        }
      ],
      "payable": false,
      "stateMutability": "view",
      "type": "function"
    },
    {
      "constant": true,
      "inputs": [
        {
          "internalType": "address",
          "name": "",
          "type": "address"
        }
      ],
      "name": "ThisSideLocked",
      "outputs": [
        {
          "internalType": "address",
          "name": "",
          "type": "address"
        }
      ],
      "payable": false,
      "stateMutability": "view",
      "type": "function"
    },
    {
      "constant": true,
      "inputs": [
        {
          "internalType": "address",
          "name": "",
          "type": "address"
        }
      ],
      "name": "ThisSideMint",
      "outputs": [
        {
          "internalType": "address",
          "name": "",
          "type": "address"
        }
      ],
      "payable": false,
      "stateMutability": "view",
      "type": "function"
    },
    {
      "constant": true,
      "inputs": [],
      "name": "isOwner",
      "outputs": [
        {
          "internalType": "bool",
          "name": "",
          "type": "bool"
        }
      ],
      "payable": false,
      "stateMutability": "view",
      "type": "function"
    },
    {
      "constant": true,
      "inputs": [],
      "name": "lightclient",
      "outputs": [
        {
          "internalType": "contract LightClient",
          "name": "",
          "type": "address"
        }
      ],
      "payable": false,
      "stateMutability": "view",
      "type": "function"
    },
    {
      "constant": true,
      "inputs": [],
      "name": "otherSideBridge",
      "outputs": [
        {
          "internalType": "address",
          "name": "",
          "type": "address"
        }
      ],
      "payable": false,
      "stateMutability": "view",
      "type": "function"
    },
    {
      "constant": true,
      "inputs": [],
      "name": "owner",
      "outputs": [
        {
          "internalType": "address",
          "name": "",
          "type": "address"
        }
      ],
      "payable": false,
      "stateMutability": "view",
      "type": "function"
    },
    {
      "constant": false,
      "inputs": [],
      "name": "renounceOwnership",
      "outputs": [],
      "payable": false,
      "stateMutability": "nonpayable",
      "type": "function"
    },
    {
      "constant": true,
      "inputs": [
        {
          "internalType": "bytes32",
          "name": "",
          "type": "bytes32"
        }
      ],
      "name": "spentReceipt",
      "outputs": [
        {
          "internalType": "bool",
          "name": "",
          "type": "bool"
        }
      ],
      "payable": false,
      "stateMutability": "view",
      "type": "function"
    },
    {
      "constant": false,
      "inputs": [
        {
          "internalType": "address",
          "name": "newOwner",
          "type": "address"
        }
      ],
      "name": "transferOwnership",
      "outputs": [],
      "payable": false,
      "stateMutability": "nonpayable",
      "type": "function"
    },
    {
      "constant": false,
      "inputs": [
        {
          "internalType": "contract LightClient",
          "name": "newClient",
          "type": "address"
        }
      ],
      "name": "changeLightClient",
      "outputs": [],
      "payable": false,
      "stateMutability": "nonpayable",
      "type": "function"
    },
    {
      "constant": false,
      "inputs": [
        {
          "internalType": "address",
          "name": "otherSide",
          "type": "address"
        }
      ],
      "name": "bandBridgeSide",
      "outputs": [],
      "payable": false,
      "stateMutability": "nonpayable",
      "type": "function"
    },
    {
      "constant": false,
      "inputs": [
        {
          "internalType": "contract ERC20Detailed",
          "name": "thisSideToken",
          "type": "address"
        }
      ],
      "name": "CreateRainbow",
      "outputs": [
        {
          "internalType": "address",
          "name": "",
          "type": "address"
        }
      ],
      "payable": false,
      "stateMutability": "nonpayable",
      "type": "function"
    },
    {
      "constant": false,
      "inputs": [
        {
          "internalType": "contract BridgedToken",
          "name": "token",
          "type": "address"
        },
        {
          "internalType": "address",
          "name": "recipient",
          "type": "address"
        },
        {
          "internalType": "uint256",
          "name": "amount",
          "type": "uint256"
        }
      ],
      "name": "RainbowBack",
      "outputs": [],
      "payable": false,
      "stateMutability": "nonpayable",
      "type": "function"
    },
    {
      "constant": false,
      "inputs": [
        {
          "internalType": "contract IERC20",
          "name": "token",
          "type": "address"
        },
        {
          "internalType": "address",
          "name": "recipient",
          "type": "address"
        },
        {
          "internalType": "uint256",
          "name": "amount",
          "type": "uint256"
        }
      ],
      "name": "RainbowTo",
      "outputs": [],
      "payable": false,
      "stateMutability": "nonpayable",
      "type": "function"
    },
    {
      "constant": false,
      "inputs": [
        {
          "internalType": "bytes32",
          "name": "blockHash",
          "type": "bytes32"
        },
        {
          "internalType": "bytes32",
          "name": "rootHash",
          "type": "bytes32"
        },
        {
          "internalType": "bytes",
          "name": "mptkey",
          "type": "bytes"
        },
        {
          "internalType": "bytes",
          "name": "proof",
          "type": "bytes"
        }
      ],
      "name": "ExecProof",
      "outputs": [],
      "payable": false,
      "stateMutability": "nonpayable",
      "type": "function"
    }
  ],
  "bytecode": "0x6080604081905280602862003f838239604080519182900360280182206001557f546f6b656e4d617041636b28616464726573732c61646472657373290000000082525190819003601c018120600255905080602762003f5c8239604051908190036027018120600355905080602562003f378239602501905060405180910390206004553480156200009157600080fd5b506000620000a76001600160e01b036200014316565b600080546001600160a01b0319166001600160a01b0383169081178255604051929350917f8be0079c531659141344cd1fd0a4f28419497f9722a3daafe3b4186f6b6457e0908290a350604051620000ff9062000147565b604051809103906000f0801580156200011c573d6000803e3d6000fd5b50600680546001600160a01b0319166001600160a01b039290921691909117905562000154565b3390565b60bc8062003e7b83390190565b613d1780620001646000396000f3fe60806040523480156200001157600080fd5b5060043610620001305760003560e01c80638da5cb5b11620000b1578063c7c2686d116200007b578063c7c2686d1462000585578063cc5cca4214620005ae578063e86bb36914620005d7578063f2fde38b1462000600578063f32bceca14620006295762000130565b80638da5cb5b146200051f5780638f32d59b1462000529578063b26f482f1462000533578063bf21980b146200055c5762000130565b80635048726a11620000ff5780635048726a14620002ce57806364f4c4db1462000307578063715018a614620004b857806388a82ab814620004c25780638ab3124a14620004eb5762000130565b806305136c431462000135578063079217f7146200017a5780631b7f3e2314620002ba5780634d2be8e514620002c4575b600080fd5b6200015e600480360360208110156200014d57600080fd5b50356001600160a01b031662000662565b604080516001600160a01b039092168252519081900360200190f35b620002b8600480360360808110156200019257600080fd5b813591602081013591810190606081016040820135600160201b811115620001b957600080fd5b820183602082011115620001cc57600080fd5b803590602001918460018302840111600160201b83111715620001ee57600080fd5b91908080601f0160208091040260200160405190810160405280939291908181526020018383808284376000920191909152509295949360208101935035915050600160201b8111156200024157600080fd5b8201836020820111156200025457600080fd5b803590602001918460018302840111600160201b831117156200027657600080fd5b91908080601f0160208091040260200160405190810160405280939291908181526020018383808284376000920191909152509295506200067d945050505050565b005b6200015e62000830565b6200015e6200083f565b620002b860048036036060811015620002e657600080fd5b506001600160a01b038135811691602081013590911690604001356200084e565b62000440600480360360608110156200031f57600080fd5b81359190810190604081016020820135600160201b8111156200034157600080fd5b8201836020820111156200035457600080fd5b803590602001918460018302840111600160201b831117156200037657600080fd5b91908080601f0160208091040260200160405190810160405280939291908181526020018383808284376000920191909152509295949360208101935035915050600160201b811115620003c957600080fd5b820183602082011115620003dc57600080fd5b803590602001918460018302840111600160201b83111715620003fe57600080fd5b91908080601f016020809104026020016040519081016040528093929190818152602001838380828437600092019190915250929550620009c8945050505050565b6040805160208082528351818301528351919283929083019185019080838360005b838110156200047c57818101518382015260200162000462565b50505050905090810190601f168015620004aa5780820380516001836020036101000a031916815260200191505b509250505060405180910390f35b620002b8620009fa565b6200015e60048036036020811015620004da57600080fd5b50356001600160a01b031662000a8f565b6200050b600480360360208110156200050357600080fd5b503562000ed8565b604080519115158252519081900360200190f35b6200015e62000eed565b6200050b62000efc565b6200015e600480360360208110156200054b57600080fd5b50356001600160a01b031662000f22565b620002b8600480360360208110156200057457600080fd5b50356001600160a01b031662000f3d565b6200015e600480360360208110156200059d57600080fd5b50356001600160a01b031662000faa565b620002b860048036036020811015620005c657600080fd5b50356001600160a01b031662000fc5565b6200015e60048036036020811015620005ef57600080fd5b50356001600160a01b031662001032565b620002b8600480360360208110156200061857600080fd5b50356001600160a01b03166200104d565b620002b8600480360360608110156200064157600080fd5b506001600160a01b03813581169160208101359091169060400135620010a6565b6007602052600090815260409020546001600160a01b031681565b600654604080516329e141af60e01b8152600481018790526024810186905290516001600160a01b03909216916329e141af91604480820192602092909190829003018186803b158015620006d157600080fd5b505afa158015620006e6573d6000803e3d6000fd5b505050506040513d6020811015620006fd57600080fd5b505162000746576040805162461bcd60e51b81526020600482015260126024820152710eee4dedcce40e4cac6cad2e0e840d0c2e6d60731b604482015290519081900360640190fd5b606062000755848484620009c8565b80516020808301919091206000818152600b9092526040909120549192509060ff1615620007ba576040805162461bcd60e51b815260206004820152600d60248201526c646f75626c65207370656e742160981b604482015290519081900360640190fd5b6000818152600b60205260408120805460ff19166001179055620007de8362001206565b90506000811162000827576040805162461bcd60e51b815260206004820152600e60248201526d1b9bc81d985b1a5908195d995b9d60921b604482015290519081900360640190fd5b50505050505050565b6006546001600160a01b031681565b6005546001600160a01b031681565b6001600160a01b038216620008955760405162461bcd60e51b815260040180806020018281038252602281526020018062003ca16022913960400191505060405180910390fd5b6001600160a01b0383811660009081526007602052604090205416620008f7576040805162461bcd60e51b8152602060048201526012602482015271189c9a5919d9481a5cdb89dd08195e1a5cdd60721b604482015290519081900360640190fd5b604080516323b872dd60e01b81523360048201523060248201526044810183905290516001600160a01b038516916323b872dd9160648083019260209291908290030181600087803b1580156200094d57600080fd5b505af115801562000962573d6000803e3d6000fd5b505050506040513d60208110156200097957600080fd5b5050604080518281526001600160a01b03848116602083015282513393918716927f4c6ab40ee4cfa212a441d32ee2897945b4a52461284f9369e23fdf8faa6cdd6992908290030190a3505050565b606080620009e0620009da84620014ab565b620014d3565b9050620009ef858583620015b0565b9150505b9392505050565b62000a0462000efc565b62000a45576040805162461bcd60e51b8152602060048201819052602482015260008051602062003cc3833981519152604482015290519081900360640190fd5b600080546040516001600160a01b03909116907f8be0079c531659141344cd1fd0a4f28419497f9722a3daafe3b4186f6b6457e0908390a3600080546001600160a01b0319169055565b6001600160a01b038181166000908152600760205260408120549091161562000af3576040805162461bcd60e51b81526020600482015260116024820152707261696e626f772069732065786973747360781b604482015290519081900360640190fd5b6000829050806001600160a01b031663313ce5676040518163ffffffff1660e01b815260040160206040518083038186803b15801562000b3257600080fd5b505afa15801562000b47573d6000803e3d6000fd5b505050506040513d602081101562000b5e57600080fd5b5051604080516306fdde0360e01b8152905160ff909216916001600160a01b03808716927fc13b93ab57586894396c38a46a06c88056fdbb23c7c595f8d08274f9a8593a4292918616916306fdde0391600480820192600092909190829003018186803b15801562000bcf57600080fd5b505afa15801562000be4573d6000803e3d6000fd5b505050506040513d6000823e601f3d908101601f19168201604052602081101562000c0e57600080fd5b8101908080516040519392919084600160201b82111562000c2e57600080fd5b90830190602082018581111562000c4457600080fd5b8251600160201b81118282018810171562000c5e57600080fd5b82525081516020918201929091019080838360005b8381101562000c8d57818101518382015260200162000c73565b50505050905090810190601f16801562000cbb5780820380516001836020036101000a031916815260200191505b50604052505050846001600160a01b03166395d89b416040518163ffffffff1660e01b815260040160006040518083038186803b15801562000cfc57600080fd5b505afa15801562000d11573d6000803e3d6000fd5b505050506040513d6000823e601f3d908101601f19168201604052602081101562000d3b57600080fd5b8101908080516040519392919084600160201b82111562000d5b57600080fd5b90830190602082018581111562000d7157600080fd5b8251600160201b81118282018810171562000d8b57600080fd5b82525081516020918201929091019080838360005b8381101562000dba57818101518382015260200162000da0565b50505050905090810190601f16801562000de85780820380516001836020036101000a031916815260200191505b50604052505050604051808060200180602001838103835285818151815260200191508051906020019080838360005b8381101562000e3257818101518382015260200162000e18565b50505050905090810190601f16801562000e605780820380516001836020036101000a031916815260200191505b50838103825284518152845160209182019186019080838360005b8381101562000e9557818101518382015260200162000e7b565b50505050905090810190601f16801562000ec35780820380516001836020036101000a031916815260200191505b5094505050505060405180910390a350919050565b600b6020526000908152604090205460ff1681565b6000546001600160a01b031690565b600080546001600160a01b031662000f136200195d565b6001600160a01b031614905090565b600a602052600090815260409020546001600160a01b031681565b62000f4762000efc565b62000f88576040805162461bcd60e51b8152602060048201819052602482015260008051602062003cc3833981519152604482015290519081900360640190fd5b600680546001600160a01b0319166001600160a01b0392909216919091179055565b6008602052600090815260409020546001600160a01b031681565b62000fcf62000efc565b62001010576040805162461bcd60e51b8152602060048201819052602482015260008051602062003cc3833981519152604482015290519081900360640190fd5b600580546001600160a01b0319166001600160a01b0392909216919091179055565b6009602052600090815260409020546001600160a01b031681565b6200105762000efc565b62001098576040805162461bcd60e51b8152602060048201819052602482015260008051602062003cc3833981519152604482015290519081900360640190fd5b620010a38162001961565b50565b6001600160a01b038216620010ed5760405162461bcd60e51b815260040180806020018281038252602281526020018062003ca16022913960400191505060405180910390fd5b6001600160a01b038381166000908152600a6020526040902054166200114f576040805162461bcd60e51b8152602060048201526012602482015271189c9a5919d9481a5cdb89dd08195e1a5cdd60721b604482015290519081900360640190fd5b6040805163079cc67960e41b81523360048201526024810183905290516001600160a01b038516916379cc679091604480830192600092919082900301818387803b1580156200119e57600080fd5b505af1158015620011b3573d6000803e3d6000fd5b5050604080518481526001600160a01b038681166020830152825133955090881693507f3dd1df88dc92e2788892542d81f999d720a44b4c127065d45c128f4f59fdc373929181900390910190a3505050565b600062001212620026c3565b6200121d83620014ab565b905060606200122c82620014d3565b9050600062001250826000815181106200124257fe5b602002602001015162001a03565b90508060011462001299576040805162461bcd60e51b815260206004820152600e60248201526d1c995d995c9d081c9958d95a5c1d60921b604482015290519081900360640190fd5b6060620012bb83600381518110620012ad57fe5b6020026020010151620014d3565b905060005b8151811015620014a1576060620012dd838381518110620012ad57fe5b905060006200130182600081518110620012f357fe5b602002602001015162001a68565b6005549091506001600160a01b038083169116146200132257505062001498565b60606200133683600181518110620012ad57fe5b90506060815160405190808252806020026020018201604052801562001366578160200160208202803883390190505b50905060005b8251811015620013ab57620013878382815181106200124257fe5b60001b8282815181106200139757fe5b60209081029190910101526001016200136c565b506060620013ce85600281518110620013c057fe5b602002602001015162001a8b565b905060035482600081518110620013e157fe5b602002602001015114156200140e57620013fc828262001b01565b50506001909801975062001498915050565b600454826000815181106200141f57fe5b602002602001015114156200143a57620013fc828262001c03565b600154826000815181106200144b57fe5b602002602001015114156200146657620013fc828262001caa565b600254826000815181106200147757fe5b602002602001015114156200149257620013fc828262002058565b50505050505b600101620012c0565b5050505050919050565b620014b5620026c3565b5060408051808201909152815181526020828101908201525b919050565b6060620014e082620020d9565b620014ea57600080fd5b6000620014f78362002117565b9050806040519080825280602002602001820160405280156200153757816020015b62001523620026c3565b815260200190600190039081620015195790505b50915060006200154b84602001516200217b565b60208501510190506000805b83811015620015a7576200156b83620021ed565b91506040518060400160405280838152602001848152508582815181106200158f57fe5b60209081029190910101529181019160010162001557565b50505050919050565b6060620015c1836000600162002285565b9250600080606080620015d3620026c3565b865162001624577f56e81f171bcc55a6ff8345e692c0f86e5b48e01b996cadc001622fb5e363b42189146200160757600080fd5b50506040805160008152602081019091529350620009f392505050565b60005b87518110156200195057620016508882815181106200164257fe5b6020026020010151620023f8565b935080158015620016675750835160208501208a14155b156200167257600080fd5b80158015906200168c5750620016888462002465565b8514155b156200169757600080fd5b620016a8888281518110620012ad57fe5b92508251600214156200181b5760006060620016d5620016cf86600081518110620013c057fe5b6200251e565b90925090506000620016e9898d84620025d3565b905080890198508151811015620017305760018b51038410156200170c57600080fd5b60408051600080825260208201909252905b509950505050505050505050620009f3565b82156200179e5760018b51038410156200174957600080fd5b8b518910156200176a5760408051600080825260208201909252906200171e565b856001815181106200177857fe5b602002602001015194506200178d8562001a8b565b9950505050505050505050620009f3565b60018b5103841415620017b057600080fd5b620017d086600181518110620017c257fe5b6020026020010151620020d9565b620017f657620017e786600181518110620013c057fe5b80519060200120975062001812565b62001808866001815181106200164257fe5b8051906020012097505b50505062001947565b825160111415620019475788518614620019165760008987815181106200183e57fe5b01602001516001979097019660f81c9050601081106200185d57600080fd5b6200187f848260ff16815181106200187157fe5b60200260200101516200264f565b15620018b557600189510382146200189657600080fd5b50506040805160008152602081019091529550620009f3945050505050565b620018c9848260ff1681518110620017c257fe5b620018f157620018e2848260ff1681518110620013c057fe5b8051906020012095506200190f565b62001905848260ff16815181106200164257fe5b8051906020012095505b5062001947565b600188510381146200192757600080fd5b6200193983601081518110620013c057fe5b9650505050505050620009f3565b60010162001627565b5050505050509392505050565b3390565b6001600160a01b038116620019a85760405162461bcd60e51b815260040180806020018281038252602681526020018062003c7b6026913960400191505060405180910390fd5b600080546040516001600160a01b03808516939216917f8be0079c531659141344cd1fd0a4f28419497f9722a3daafe3b4186f6b6457e091a3600080546001600160a01b0319166001600160a01b0392909216919091179055565b80516000901580159062001a1957508151602110155b62001a2357600080fd5b600062001a3483602001516200217b565b8351602080860151830180519394509184900392919083101562001a5f57826020036101000a820491505b50949350505050565b805160009060151462001a7a57600080fd5b62001a858262001a03565b92915050565b805160609062001a9a57600080fd5b600062001aab83602001516200217b565b83516040805191839003808352601f19601f820116830160200190915291925060609082801562001ae3576020820181803883390190505b509050600081602001905062001a5f84876020015101828562002674565b60008260018151811062001b1157fe5b602002602001015160001c905060008083806020019051604081101562001b3757600080fd5b5080516020918201516001600160a01b03808716600090815260099094526040909320549194509250168062001b6c57600080fd5b806001600160a01b03166340c10f1983856040518363ffffffff1660e01b815260040180836001600160a01b03166001600160a01b0316815260200182815260200192505050602060405180830381600087803b15801562001bcd57600080fd5b505af115801562001be2573d6000803e3d6000fd5b505050506040513d602081101562001bf957600080fd5b5050505050505050565b60008260018151811062001c1357fe5b602002602001015160001c905060008083806020019051604081101562001c3957600080fd5b5080516020918201516001600160a01b03808716600090815260088552604080822054815163a9059cbb60e01b815284861660048201526024810187905291519598509396509290911693849363a9059cbb93604480820194918390030190829087803b15801562001bcd57600080fd5b60008260018151811062001cba57fe5b6020908102919091018101516001600160a01b0380821660009081526009909352604090922054909250161562001d2f576040805162461bcd60e51b8152602060048201526014602482015273189c9a5919d948185b1c9958591e48195e1a5cdd60621b604482015290519081900360640190fd5b60008360028151811062001d3f57fe5b602002602001015160001c905060608084806020019051604081101562001d6557600080fd5b8101908080516040519392919084600160201b82111562001d8557600080fd5b90830190602082018581111562001d9b57600080fd5b8251600160201b81118282018810171562001db557600080fd5b82525081516020918201929091019080838360005b8381101562001de457818101518382015260200162001dca565b50505050905090810190601f16801562001e125780820380516001836020036101000a031916815260200191505b5060405260200180516040519392919084600160201b82111562001e3557600080fd5b90830190602082018581111562001e4b57600080fd5b8251600160201b81118282018810171562001e6557600080fd5b82525081516020918201929091019080838360005b8381101562001e9457818101518382015260200162001e7a565b50505050905090810190601f16801562001ec25780820380516001836020036101000a031916815260200191505b5060405250505091509150600082828560405162001ee090620026dd565b60ff82166040820152606080825284519082015283518190602080830191608084019188019080838360005b8381101562001f2657818101518382015260200162001f0c565b50505050905090810190601f16801562001f545780820380516001836020036101000a031916815260200191505b50838103825285518152855160209182019187019080838360005b8381101562001f8957818101518382015260200162001f6f565b50505050905090810190601f16801562001fb75780820380516001836020036101000a031916815260200191505b5095505050505050604051809103906000f08015801562001fdc573d6000803e3d6000fd5b506001600160a01b038082166000818152600a602090815260408083208054958c166001600160a01b03199687168117909155808452600990925280832080549095168417909455925193945090927f78591f651c27eef63481b7fd779e44c2426cbe82c7050fe9bc90b6707efbc3d39190a350505050505050565b6000826001815181106200206857fe5b602002602001015160001c90506000836002815181106200208557fe5b6020908102919091018101516001600160a01b0393841660008181526007845260408082208054979094166001600160a01b0319978816811790945592815260089093529120805490931617909155505050565b8051600090620020ec57506000620014ce565b6020820151805160001a9060c08210156200210d57600092505050620014ce565b5060019392505050565b80516000906200212a57506000620014ce565b600080905060006200214084602001516200217b565b602085015185519181019250015b8082101562002172576200216282620021ed565b600190930192909101906200214e565b50909392505050565b8051600090811a608081101562002197576000915050620014ce565b60b8811080620021b4575060c08110801590620021b4575060f881105b15620021c5576001915050620014ce565b60c0811015620021db5760b519019050620014ce565b60f519019050620014ce565b50919050565b8051600090811a608081101562002209576001915050620014ce565b60b88110156200221f57607e19019050620014ce565b60c08110156200224e5760b78103600184019350806020036101000a84510460018201810193505050620021e7565b60f8811015620022645760be19019050620014ce565b60019290920151602083900360f7016101000a900490910160f51901919050565b606060008451116200229657600080fd5b835160020280841115620022a957600080fd5b83810390508281016040519080825280601f01601f191660200182016040528015620022dc576020820181803883390190505b50915082600114156200231757601060f81b82600184510381518110620022ff57fe5b60200101906001600160f81b031916908160001a9053505b6000845b828601811015620023e15760028106620023845760048760028304815181106200234157fe5b602001015160f81c60f81b60f81c60ff16901c600f1660f81b8483815181106200236757fe5b60200101906001600160f81b031916908160001a905350620023d4565b60008760028304815181106200239657fe5b602001015160f81c60f81b60f81c60ff16901c600f1660f81b848381518110620023bc57fe5b60200101906001600160f81b031916908160001a9053505b600191820191016200231b565b50825184820114620023ef57fe5b50509392505050565b60608082600001516040519080825280601f01601f1916602001820160405280156200242b576020820181803883390190505b50905080516000141562002441579050620014ce565b60008160200190506200245e846020015182866000015162002674565b5092915050565b600060208251101562002480575080516020820120620014ce565b816040516020018082805190602001908083835b60208310620024b55780518252601f19909201916020918201910162002494565b6001836020036101000a0380198251168184511680821785525050505050509050019150506040516020818303038152906040528051906020012060405160200180828152602001915050604051602081830303815290604052805190602001209050620014ce565b6000606060008351116200253157600080fd5b60006004846000815181106200254357fe5b60209101015160f81c901c600f169050600081620025685750600092506002620025a7565b81600114156200257f5750600092506001620025a7565b8160021415620025965750600192506002620025a7565b816003141562000130575060019250825b83620025c8868387620025bc576000620025bf565b60015b60ff1662002285565b935093505050915091565b6000805b8351858201108015620025ea5750825181105b156200264757828181518110620025fd57fe5b602001015160f81c60f81b6001600160f81b03191684868301815181106200262157fe5b01602001516001600160f81b031916146200263e579050620009f3565b600101620025d7565b949350505050565b80516000906001146200266557506000620014ce565b50602001515160001a60801490565b806200268057620026be565b5b60208110620026a2578251825260209283019290910190601f190162002681565b8251825160208390036101000a60001901801990921691161782525b505050565b604051806040016040528060008152602001600081525090565b61158f80620026ec8339019056fe60806040523480156200001157600080fd5b506040516200158f3803806200158f833981810160405260608110156200003757600080fd5b81019080805160405193929190846401000000008211156200005857600080fd5b9083019060208201858111156200006e57600080fd5b82516401000000008111828201881017156200008957600080fd5b82525081516020918201929091019080838360005b83811015620000b85781810151838201526020016200009e565b50505050905090810190601f168015620000e65780820380516001836020036101000a031916815260200191505b50604052602001805160405193929190846401000000008211156200010a57600080fd5b9083019060208201858111156200012057600080fd5b82516401000000008111828201881017156200013b57600080fd5b82525081516020918201929091019080838360005b838110156200016a57818101518382015260200162000150565b50505050905090810190601f168015620001985780820380516001836020036101000a031916815260200191505b50604052602090810151855190935085925084918491620001c0916003919086019062000361565b508151620001d690600490602085019062000361565b506005805460ff191660ff92909216919091179055506200020b9050620001fc62000214565b6001600160e01b036200021916565b50505062000403565b335b90565b620002348160066200026b60201b62000e621790919060201c565b6040516001600160a01b038216907f6ae172837ea30b801fbfcdd4108aa1d5bf8ff775444fd70256b44e6bf3dfc3f690600090a250565b6200028082826001600160e01b03620002f816565b15620002d3576040805162461bcd60e51b815260206004820152601f60248201527f526f6c65733a206163636f756e7420616c72656164792068617320726f6c6500604482015290519081900360640190fd5b6001600160a01b0316600090815260209190915260409020805460ff19166001179055565b60006001600160a01b038216620003415760405162461bcd60e51b81526004018080602001828103825260228152602001806200156d6022913960400191505060405180910390fd5b506001600160a01b03166000908152602091909152604090205460ff1690565b828054600181600116156101000203166002900490600052602060002090601f016020900481019282601f10620003a457805160ff1916838001178555620003d4565b82800160010185558215620003d4579182015b82811115620003d4578251825591602001919060010190620003b7565b50620003e2929150620003e6565b5090565b6200021691905b80821115620003e25760008155600101620003ed565b61115a80620004136000396000f3fe608060405234801561001057600080fd5b506004361061010b5760003560e01c806370a08231116100a257806398650275116100715780639865027514610332578063a457c2d71461033a578063a9059cbb14610366578063aa271e1a14610392578063dd62ed3e146103b85761010b565b806370a08231146102b257806379cc6790146102d857806395d89b4114610304578063983b2d561461030c5761010b565b8063313ce567116100de578063313ce5671461021d578063395093511461023b57806340c10f191461026757806342966c68146102935761010b565b806306fdde0314610110578063095ea7b31461018d57806318160ddd146101cd57806323b872dd146101e7575b600080fd5b6101186103e6565b6040805160208082528351818301528351919283929083019185019080838360005b8381101561015257818101518382015260200161013a565b50505050905090810190601f16801561017f5780820380516001836020036101000a031916815260200191505b509250505060405180910390f35b6101b9600480360360408110156101a357600080fd5b506001600160a01b03813516906020013561047c565b604080519115158252519081900360200190f35b6101d5610499565b60408051918252519081900360200190f35b6101b9600480360360608110156101fd57600080fd5b506001600160a01b0381358116916020810135909116906040013561049f565b61022561052c565b6040805160ff9092168252519081900360200190f35b6101b96004803603604081101561025157600080fd5b506001600160a01b038135169060200135610535565b6101b96004803603604081101561027d57600080fd5b506001600160a01b038135169060200135610589565b6102b0600480360360208110156102a957600080fd5b50356105e0565b005b6101d5600480360360208110156102c857600080fd5b50356001600160a01b03166105f4565b6102b0600480360360408110156102ee57600080fd5b506001600160a01b03813516906020013561060f565b61011861061d565b6102b06004803603602081101561032257600080fd5b50356001600160a01b031661067e565b6102b06106cd565b6101b96004803603604081101561035057600080fd5b506001600160a01b0381351690602001356106df565b6101b96004803603604081101561037c57600080fd5b506001600160a01b03813516906020013561074d565b6101b9600480360360208110156103a857600080fd5b50356001600160a01b0316610761565b6101d5600480360360408110156103ce57600080fd5b506001600160a01b038135811691602001351661077a565b60038054604080516020601f60026000196101006001881615020190951694909404938401819004810282018101909252828152606093909290918301828280156104725780601f1061044757610100808354040283529160200191610472565b820191906000526020600020905b81548152906001019060200180831161045557829003601f168201915b5050505050905090565b60006104906104896107a5565b84846107a9565b50600192915050565b60025490565b60006104ac848484610895565b610522846104b86107a5565b61051d85604051806060016040528060288152602001611029602891396001600160a01b038a166000908152600160205260408120906104f66107a5565b6001600160a01b03168152602081019190915260400160002054919063ffffffff6109f116565b6107a9565b5060019392505050565b60055460ff1690565b60006104906105426107a5565b8461051d85600160006105536107a5565b6001600160a01b03908116825260208083019390935260409182016000908120918c16815292529020549063ffffffff610a8816565b600061059b6105966107a5565b610761565b6105d65760405162461bcd60e51b8152600401808060200182810382526030815260200180610fd86030913960400191505060405180910390fd5b6104908383610ae9565b6105f16105eb6107a5565b82610bd9565b50565b6001600160a01b031660009081526020819052604090205490565b6106198282610cd5565b5050565b60048054604080516020601f60026000196101006001881615020190951694909404938401819004810282018101909252828152606093909290918301828280156104725780601f1061044757610100808354040283529160200191610472565b6106896105966107a5565b6106c45760405162461bcd60e51b8152600401808060200182810382526030815260200180610fd86030913960400191505060405180910390fd5b6105f181610d29565b6106dd6106d86107a5565b610d71565b565b60006104906106ec6107a5565b8461051d8560405180606001604052806025815260200161110160259139600160006107166107a5565b6001600160a01b03908116825260208083019390935260409182016000908120918d1681529252902054919063ffffffff6109f116565b600061049061075a6107a5565b8484610895565b600061077460068363ffffffff610db916565b92915050565b6001600160a01b03918216600090815260016020908152604080832093909416825291909152205490565b3390565b6001600160a01b0383166107ee5760405162461bcd60e51b81526004018080602001828103825260248152602001806110dd6024913960400191505060405180910390fd5b6001600160a01b0382166108335760405162461bcd60e51b8152600401808060200182810382526022815260200180610f906022913960400191505060405180910390fd5b6001600160a01b03808416600081815260016020908152604080832094871680845294825291829020859055815185815291517f8c5be1e5ebec7d5bd14f71427d1e84f3dd0314c0f7b2291e5b200ac8c7c3b9259281900390910190a3505050565b6001600160a01b0383166108da5760405162461bcd60e51b81526004018080602001828103825260258152602001806110b86025913960400191505060405180910390fd5b6001600160a01b03821661091f5760405162461bcd60e51b8152600401808060200182810382526023815260200180610f4b6023913960400191505060405180910390fd5b61096281604051806060016040528060268152602001610fb2602691396001600160a01b038616600090815260208190526040902054919063ffffffff6109f116565b6001600160a01b038085166000908152602081905260408082209390935590841681522054610997908263ffffffff610a8816565b6001600160a01b038084166000818152602081815260409182902094909455805185815290519193928716927fddf252ad1be2c89b69c2b068fc378daa952ba7f163c4a11628f55a4df523b3ef92918290030190a3505050565b60008184841115610a805760405162461bcd60e51b81526004018080602001828103825283818151815260200191508051906020019080838360005b83811015610a45578181015183820152602001610a2d565b50505050905090810190601f168015610a725780820380516001836020036101000a031916815260200191505b509250505060405180910390fd5b505050900390565b600082820183811015610ae2576040805162461bcd60e51b815260206004820152601b60248201527f536166654d6174683a206164646974696f6e206f766572666c6f770000000000604482015290519081900360640190fd5b9392505050565b6001600160a01b038216610b44576040805162461bcd60e51b815260206004820152601f60248201527f45524332303a206d696e7420746f20746865207a65726f206164647265737300604482015290519081900360640190fd5b600254610b57908263ffffffff610a8816565b6002556001600160a01b038216600090815260208190526040902054610b83908263ffffffff610a8816565b6001600160a01b0383166000818152602081815260408083209490945583518581529351929391927fddf252ad1be2c89b69c2b068fc378daa952ba7f163c4a11628f55a4df523b3ef9281900390910190a35050565b6001600160a01b038216610c1e5760405162461bcd60e51b81526004018080602001828103825260218152602001806110976021913960400191505060405180910390fd5b610c6181604051806060016040528060228152602001610f6e602291396001600160a01b038516600090815260208190526040902054919063ffffffff6109f116565b6001600160a01b038316600090815260208190526040902055600254610c8d908263ffffffff610e2016565b6002556040805182815290516000916001600160a01b038516917fddf252ad1be2c89b69c2b068fc378daa952ba7f163c4a11628f55a4df523b3ef9181900360200190a35050565b610cdf8282610bd9565b61061982610ceb6107a5565b61051d84604051806060016040528060248152602001611073602491396001600160a01b0388166000908152600160205260408120906104f66107a5565b610d3a60068263ffffffff610e6216565b6040516001600160a01b038216907f6ae172837ea30b801fbfcdd4108aa1d5bf8ff775444fd70256b44e6bf3dfc3f690600090a250565b610d8260068263ffffffff610ee316565b6040516001600160a01b038216907fe94479a9f7e1952cc78f2d6baab678adc1b772d936c6583def489e524cb6669290600090a250565b60006001600160a01b038216610e005760405162461bcd60e51b81526004018080602001828103825260228152602001806110516022913960400191505060405180910390fd5b506001600160a01b03166000908152602091909152604090205460ff1690565b6000610ae283836040518060400160405280601e81526020017f536166654d6174683a207375627472616374696f6e206f766572666c6f7700008152506109f1565b610e6c8282610db9565b15610ebe576040805162461bcd60e51b815260206004820152601f60248201527f526f6c65733a206163636f756e7420616c72656164792068617320726f6c6500604482015290519081900360640190fd5b6001600160a01b0316600090815260209190915260409020805460ff19166001179055565b610eed8282610db9565b610f285760405162461bcd60e51b81526004018080602001828103825260218152602001806110086021913960400191505060405180910390fd5b6001600160a01b0316600090815260209190915260409020805460ff1916905556fe45524332303a207472616e7366657220746f20746865207a65726f206164647265737345524332303a206275726e20616d6f756e7420657863656564732062616c616e636545524332303a20617070726f766520746f20746865207a65726f206164647265737345524332303a207472616e7366657220616d6f756e7420657863656564732062616c616e63654d696e746572526f6c653a2063616c6c657220646f6573206e6f74206861766520746865204d696e74657220726f6c65526f6c65733a206163636f756e7420646f6573206e6f74206861766520726f6c6545524332303a207472616e7366657220616d6f756e74206578636565647320616c6c6f77616e6365526f6c65733a206163636f756e7420697320746865207a65726f206164647265737345524332303a206275726e20616d6f756e74206578636565647320616c6c6f77616e636545524332303a206275726e2066726f6d20746865207a65726f206164647265737345524332303a207472616e736665722066726f6d20746865207a65726f206164647265737345524332303a20617070726f76652066726f6d20746865207a65726f206164647265737345524332303a2064656372656173656420616c6c6f77616e63652062656c6f77207a65726fa265627a7a72315820fd09895d49d47e19510615b0fd9e57e934c11ff1cc81580e850b43e52a2e5b4564736f6c63430005110032526f6c65733a206163636f756e7420697320746865207a65726f20616464726573734f776e61626c653a206e6577206f776e657220697320746865207a65726f20616464726573734c6f636b65722f726563697069656e742069732061207a65726f20616464726573734f776e61626c653a2063616c6c6572206973206e6f7420746865206f776e6572a265627a7a723158203b9b51990a263ad064c68a04c4641959ba99c8836353b91e6be319c15dc2fc2c64736f6c634300051100326080604052348015600f57600080fd5b50609e8061001e6000396000f3fe6080604052348015600f57600080fd5b506004361060285760003560e01c806329e141af14602d575b600080fd5b604d60048036036040811015604157600080fd5b50803590602001356061565b604080519115158252519081900360200190f35b60019291505056fea265627a7a72315820125fa466a2253f1026004a98b27e52953ad2b8d706539e4c612440d5f56da2c664736f6c634300051100324275726e28616464726573732c616464726573732c75696e743235362c61646472657373294c6f636b656428616464726573732c616464726573732c75696e743235362c6164647265737329546f6b656e4d617052657128616464726573732c75696e74382c737472696e672c737472696e6729",
  "source": "pragma solidity ^0.5.0;\n\nimport \"./LightClient.sol\";\nimport \"./MPTSolidity/ProvethVerifier.sol\";\nimport \"@openzeppelin/contracts/token/ERC20/IERC20.sol\";\nimport \"@openzeppelin/contracts/token/ERC20/ERC20Detailed.sol\";\nimport \"@openzeppelin/contracts/token/ERC20/ERC20Burnable.sol\";\nimport \"@openzeppelin/contracts/token/ERC20/ERC20Mintable.sol\";\nimport \"@openzeppelin/contracts//ownership/Ownable.sol\";\n\ncontract BridgedToken is ERC20Burnable,ERC20Detailed,ERC20Mintable {\n    constructor(string memory name, string memory symbol, uint8 decimals) ERC20Detailed(name,symbol,decimals) public{}\n}\n\ncontract RainbowOnes is ProvethVerifier,Ownable {\n    using RLPReader for RLPReader.RLPItem;\n\tusing RLPReader for bytes;\n\n    event TokenMapReq(address indexed tokenReq, uint8 indexed decimals, string name, string symbol);\n    bytes32 TokenMapReqEventSig = keccak256(\"TokenMapReq(address,uint8,string,string)\");\n    event TokenMapAck(address indexed tokenReq, address indexed tokenAck);\n    bytes32 TokenMapAckEventSig = keccak256(\"TokenMapAck(address,address)\");\n    event Locked(address indexed token, address indexed sender, uint256 amount, address recipient);\n    bytes32 lockEventSig = keccak256(\"Locked(address,address,uint256,address)\");\n    event Burn(address indexed token, address indexed sender, uint256 amount, address recipient);\n    bytes32 burnEventSig = keccak256(\"Burn(address,address,uint256,address)\");\n\n    address public otherSideBridge;\n    LightClient public lightclient;\n\n    mapping(address=>address) public ThisSideLocked;   // thisSide locked => otherSide mint\n    mapping(address=>address) public OtherSideMint;    // otherSide mint => thisSide locked\n\n    mapping(address=>address) public OtherSideLocked;  // otherSide locked => thisSide mint\n    mapping(address=>address) public ThisSideMint;     // thisSide mint => otherSide locked\n\n    mapping(bytes32=>bool) public spentReceipt;\n\n    constructor() Ownable() public {\n        lightclient = new LightClient();\n    }\n\n    function changeLightClient(LightClient newClient) public onlyOwner {\n        lightclient = newClient;\n    }\n\n    function bandBridgeSide(address otherSide) public onlyOwner {\n        otherSideBridge = otherSide;\n    }\n\n    function CreateRainbow(ERC20Detailed thisSideToken) public returns(address) {\n        require(ThisSideLocked[address(thisSideToken)] == address(0), \"rainbow is exists\");\n        ERC20Detailed tokenDetail = ERC20Detailed(thisSideToken);\n        emit TokenMapReq(address(thisSideToken), tokenDetail.decimals(), tokenDetail.name(), tokenDetail.symbol());\n    }\n\n    function RainbowBack(BridgedToken token, address recipient, uint256 amount) public {\n        require(\n            recipient != address(0),\n            \"Locker/recipient is a zero address\"\n        );\n        require(ThisSideMint[address(token)] != address(0), \"bridge isn't exist\");\n        token.burnFrom(msg.sender, amount);\n        emit Burn(address(token), msg.sender, amount, recipient);\n    }\n\n    function RainbowTo(IERC20 token, address recipient, uint256 amount) public {\n        require(\n            recipient != address(0),\n            \"Locker/recipient is a zero address\"\n        );\n        require(ThisSideLocked[address(token)] != address(0), \"bridge isn't exist\");\n        token.transferFrom(msg.sender, address(this), amount);\n        emit Locked(address(token), msg.sender, amount, recipient);\n    }\n\n    function ExecProof(bytes32 blockHash, bytes32 rootHash, bytes memory mptkey, bytes memory proof) public {\n        require(lightclient.VerifyReceiptsHash(blockHash, rootHash), \"wrong receipt hash\");\n        bytes memory rlpdata = MPTProof(rootHash, mptkey, proof); // double spending check\n        bytes32 receiptHash = keccak256(rlpdata);\n        require(spentReceipt[receiptHash] == false, \"double spent!\");\n        spentReceipt[receiptHash] = true;\n        uint256 events = receiptVerify(rlpdata);\n        require(events > 0, \"no valid event\");\n    }\n\n\tfunction receiptVerify(bytes memory rlpdata) private returns(uint256 events) {\n        RLPReader.RLPItem memory stacks = rlpdata.toRlpItem();\n        RLPReader.RLPItem[] memory receipt = stacks.toList();\n        // TODO: check txs is revert or not\n        uint PostStateOrStatus = receipt[0].toUint();\n        require(PostStateOrStatus == 1, \"revert receipt\");\n        //uint CumulativeGasUsed = receipt[1].toUint();\n        //bytes memory Bloom = receipt[2].toBytes();\n        RLPReader.RLPItem[] memory Logs = receipt[3].toList();\n        for(uint i = 0; i < Logs.length; i++) {\n            RLPReader.RLPItem[] memory rlpLog = Logs[i].toList();\n            address Address = rlpLog[0].toAddress();\n            if(Address != otherSideBridge) continue;\n            RLPReader.RLPItem[] memory Topics = rlpLog[1].toList(); // TODO: if is lock event\n            bytes32[] memory topics = new bytes32[](Topics.length);\n            for(uint j = 0; j < Topics.length; j++) {\n                topics[j] = bytes32(Topics[j].toUint());\n            }\n            bytes memory Data = rlpLog[2].toBytes();\n            if(topics[0] == lockEventSig){\n                onLockEvent(topics, Data);\n                events++;\n                continue;\n            }\n            if(topics[0] == burnEventSig){\n                onBurnEvent(topics, Data);\n                events++;\n                continue;\n            }\n            if(topics[0] == TokenMapReqEventSig){\n                onTokenMapReqEvent(topics, Data);\n                events++;\n                continue;\n            }\n            if(topics[0] == TokenMapAckEventSig){\n                onTokenMapAckEvent(topics, Data);\n                events++;\n                continue;\n            }\n        }\n\t}\n\n    function onBurnEvent(bytes32[] memory topics, bytes memory Data) private {\n        address token = address(uint160(uint256(topics[1])));\n        //address sender = address(uint160(uint256(topics[2])));\n        (uint256 amount, address recipient) = abi.decode(Data, (uint256, address));\n        IERC20 lockedToken = IERC20(OtherSideMint[token]);\n        lockedToken.transfer(recipient, amount);\n    }\n\n    function onLockEvent(bytes32[] memory topics, bytes memory Data) private {\n        address token = address(uint160(uint256(topics[1])));\n        //address sender = address(uint160(uint256(topics[2])));\n        (uint256 amount, address recipient) = abi.decode(Data, (uint256, address));\n        address mintToken = OtherSideLocked[token];\n        require(mintToken != address(0));\n        BridgedToken(mintToken).mint(recipient, amount);\n    }\n\n    function onTokenMapReqEvent(bytes32[] memory topics, bytes memory Data) private {\n        // event TokenMapReq(address indexed tokenReq, uint256 decimals, string name, string symbol);\n        address tokenReq = address(uint160(uint256(topics[1])));\n        require(OtherSideLocked[tokenReq] == address(0), \"bridge already exist\");\n        uint8 decimals = uint8(uint256(topics[2]));\n        (string memory name, string memory symbol) = abi.decode(Data, (string, string));\n        BridgedToken mintAddress = new BridgedToken(name, symbol, decimals);\n        ThisSideMint[address(mintAddress)] = tokenReq;\n        OtherSideLocked[tokenReq] = address(mintAddress);\n        emit TokenMapAck(tokenReq, address(mintAddress));\n    }\n\n    function onTokenMapAckEvent(bytes32[] memory topics, bytes memory Data) private {\n        // event TokenMapAck(address indexed tokenReq, address indexed tokenAck);\n        Data;\n        address tokenReq = address(uint160(uint256(topics[1])));\n        address tokenAck = address(uint160(uint256(topics[2])));\n        ThisSideLocked[tokenReq] = tokenAck;\n        OtherSideMint[tokenAck] = tokenReq;\n    }\n}",
  "sourcePath": "/Users/lixp/workshop/github/harmony.one/hacktone/hack9/harmony_rainbow/contracts/RainbowOnes.sol",
  "compiler": {
    "name": "solc",
    "version": "0.5.17+commit.d19bba13.Emscripten.clang"
  },
  "schemaVersion": "3.2.1",
  "updatedAt": "2020-09-05T12:41:41.606Z",
  "networkType": "ethereum",
  "devdoc": {
    "methods": {
      "isOwner()": {
        "details": "Returns true if the caller is the current owner."
      },
      "owner()": {
        "details": "Returns the address of the current owner."
      },
      "renounceOwnership()": {
        "details": "Leaves the contract without owner. It will not be possible to call `onlyOwner` functions anymore. Can only be called by the current owner.     * NOTE: Renouncing ownership will leave the contract without an owner, thereby removing any functionality that is only available to the owner."
      },
      "transferOwnership(address)": {
        "details": "Transfers ownership of the contract to a new account (`newOwner`). Can only be called by the current owner."
      }
    }
  },
  "userdoc": {
    "methods": {}
  }
}